:020000041000EA
:1000000000B5324B212058609868022188439860DF
:10001000D860186158612E4B002199600221596106
:100020000121F02299502B49196001219960352056
:1000300000F044F80222904214D00621196600F024
:1000400034F8196E01211966002018661A6600F04E
:100050002CF8196E196E196E052000F02FF8012189
:100060000842F9D1002199601B49196000215960AB
:100070001A491B48016001219960EB211966A021F2
:10008000196600F012F800219960164914480160C1
:100090000121996001BC002800D000471248134993
:1000A000086003C880F30888084703B5996A0420EC
:1000B0000142FBD001200142F8D103BD02B5186610
:1000C0001866FFF7F2FF186E186E02BD00000240BE
:1000D000000000180000070000035F00212200005C
:1000E000F4000018222000A00001001008ED00E03C
:1000F00000000000000000000000000074B24E7A12
:1001000000200420F7010010CB010010CD010010E9
:10011000C9010010C9010010C9010010C901001077
:10012000C9010010C9010010C9010010CF01001061
:10013000C9010010C9010010D1010010D301001045
:10014000C1010010C1010010C1010010C101001067
:10015000C1010010C1010010C1010010C101001057
:10016000C1010010C1010010C1010010C101001047
:10017000C1010010C1010010C1010010C101001037
:10018000C1010010C1010010C1010010C101001027
:10019000C1010010C1010010C1010010C101001017
:1001A000C1010010C1010010C1010010C101001007
:1001B000C1010010C1010010C1010010C1010010F7
:1001C000EFF30580103800BE00BE00BE00BE00BECA
:1001D00000BE00BEF2EB8871684400108C44001031
:1001E0003802001090A31AE71E481F49086006C88D
:1001F00081F3088810471D480068002801D019487D
:10020000F3E70DA40ECC002902D000F012F8F9E7B4
:100210001749184A002000E001C19142FCD116495B
:100220008847164988471649884700BEFDE701C937
:1002300001C29A42FBD370478C440010C0000020DA
:10024000801000204C540010000004200000042006
:100250004C54001000100420001004200000000086
:10026000704700000000000008ED00E0000000D032
:1002700080100020F01D0020211B0010D50200106E
:10028000191B0010F8B5C04606480749091A8B101B
:10029000C90FC91810B5491003D0044B002B00D06A
:1002A000984710BD80100020801000200000000042
:1002B000054B10B5002B03D00449054800E000BFF2
:1002C000FFF7E2FF10BDC04600000000A41D0020A3
:1002D0007440001010B503F0EBFD0021002003F086
:1002E0009BF901200021404202F096F8F9E7C04650
:1002F0007047C0467047C0467047C0467047C0460A
:100300000048704700430010004870479C420010AE
:10031000004870477842001070B5002823D00428A8
:100320002CD8174B8000C558280003F0FFFDC0B241
:10033000041C1F2812D8E4B2002808D00023114A58
:10034000E95C01331180D9B202328C42F8D8C02264
:100350000134E3B25B00920013430CE01F24E4B2CB
:100360000028EBD1F3E7064B02221968054801F09B
:10037000ABFBC1239B000448038070BD0020FCE759
:10038000A00F0020A6150020A415002070B50500C0
:1003900014000120012905D16023127800201340A8
:1003A000402B00D070BD6378202BFBD1637922797C
:1003B0001B021343072BF5D121002800024AAB335F
:1003C00002F0F6FCEEE7C046C4410010094A830083
:1003D0009A1810B514684022544080322240064CCE
:1003E000C000A44663441A60044B9C4660444160CC
:1003F00010BDC04604C0014004D00140004001408F
:100400000123D0228340120693629361094A83003C
:100410009A1811684022514080320A400649C000B3
:100420008C4663441A60054B9C4605236044436038
:100430007047C04604C0014004D001400040014064
:100440008023DB051868000F7047C0460FB400B565
:10045000084883B001F0BAFC049B002B07D005A923
:100460001800019101F03EFB034801F0AFFC0120B0
:1004700001F050FBB8400010C840001070B5EFF319
:10048000108C72B60D4D2B68002BFCD0BFF35F8F24
:100490000724CB08C618C05C01230C40A3401C00F5
:1004A0000440034207D118433070BFF35F8F2C60C4
:1004B0008CF3108870BD1000FFF7C8FF2C0100D02E
:1004C000F8B54746CE46884680B5EFF3108C72B635
:1004D0001C4D2C68002CFCD0BFF35F8F9A4222D8B1
:1004E00007210126894602E00132934218D34D4686
:1004F00037001540AF40D4080119045D2742F3D1FD
:1005000010003C430C70BFF35F8F00220D4B1A604C
:100510008CF3108800280EDBC0BCB946B046F8BD8D
:1005200001204042EFE7BFF35F8F00232B608CF385
:100530001088012040424346002BEDD00898FFF779
:1005400085FFC0462C0100D0044A1078431CDBB262
:10055000172B00D9102313707047C046B40F00202A
:1005600010B5064B064C82B00100009318221F23E1
:100570002000FFF7A5FF02B010BDC046CC40001020
:10058000601900200021044B044ABFF35F8F02C3AF
:100590009342FAD17047C046000100D0800100D0DC
:1005A000054B064A1360064A136053609360D3609C
:1005B00013615361936170478080808000E400E0A4
:1005C00004E400E01F2318401E3B8340002905D0AF
:1005D000C021044A490053501360704780220149EA
:1005E0008B50FAE700E100E070B50D00EFF31086E4
:1005F00072B60F4A1368002BFCD0BFF35F8F0D4B10
:1006000010309B6884001B590B4A934203D09D42D3
:1006100001D001F031F8074B9B681D51BFF35F8F8C
:10062000BFF35F8F0022024B1A6086F3108870BD03
:10063000240100D000ED00E0C1010010F0B55746E4
:100640004E46DE464546E0B585B0060000911700EF
:10065000EFF3108B72B66A4A1368002BFCD0BFF31D
:100660005F8F0025674B5D579A46002D00DAA9E0A1
:100670006B00654C01935B199B009846A146C144F1
:100680004B4652469B7910361370604BB6009B6800
:1006900099590B1B2F2B33D95D4B994200D0ACE0FD
:1006A000019B42469C465B4B6544AD0063535A4BED
:1006B0000232A218043B9B1A1B05584A5B0D6519B0
:1006C00013436B80564B0121AB80FF23AB71009B22
:1006D000EF71AB604B460B4319004C4B9B68995133
:1006E000BFF35F8FBFF35F8F0022454B1A608BF320
:1006F000108805B0F0BCBB46B246A946A046F0BD86
:1007000001200A008243D3798C46BB4231D845464A
:10071000130044491B1B5B415943090D3D4B635377
:100720003D4B02356519043B5B1B1B053B4D5B0DC7
:100730002B43AA464D466B800425AC465546E04403
:10074000131F44441B1B1B055B0D1D434B46997136
:1007500000999D8099604946DF71334B01431360D6
:10076000BBE75800C01880002018C179B9422FD9C2
:1007700002000623D356002BF3DA02932B4B61467B
:100780000393131D9A4604235B429C46E144504662
:100790004B461B1A1B055B0D9C46204B95719846DA
:1007A0006346404603439380019B5A199200039B82
:1007B000A418A380029B1C4AA371009B2260E771CE
:1007C000A3608AE700F058FF002553465D574FE7C6
:1007D000908802934005131D9A46031561469C4676
:1007E0004046D444634604302018181AE02300051C
:1007F000400D1B0218430390C5E700F03DFF4FE793
:10080000240100D0EC1D0020B80F002000ED00E016
:10081000C101001000A1FFFFE80F002000E0FFFF72
:1008200001BDFFFFAAAA00000148804701BD0000EA
:10083000F0B5DE4657464E464546E0B50C0083B05F
:10084000EFF3108872B6634A1368002BFCD0BFF335
:100850005F8F614B61499A68030010339F00D5593F
:1008600001938D4243D0A54254D05D4EAA1B2F2A3E
:100870003DD85C4B9B461B68994601231A009C4659
:1008800082404B4613401F229946634602409340E4
:100890009A4680225B4650469850BFF35F8FEFF335
:1008A00005839B46002B37D0019B5B4501D000F0B0
:1008B000E3FE01232A009A439068844208D176E03F
:1008C0004B005B189B00F3189868844236D01A00DE
:1008D000062151560029F3DA844254D04B46002BAE
:1008E00027D0C02251463F4B5200995019603A4BD5
:1008F0009B68DD51BFF35F8FBFF35F8F0022354BE5
:100900001A6088F3108803B0F0BCBB46B246A94613
:10091000A046F0BD0D00EAE72A0063469A439068BE
:100920008442D5D106201056130000280ADA0D00A3
:1009300031E0802351462B4AD150D8E70620185683
:10094000002821DB42001118890074188B46A16829
:100950009960E179D971062161569971002924DBEA
:10096000A488F11A640524155C44091909051E4C74
:10097000490D2143998013181C4A9B001178F318E4
:1009800099711070AAE713005946002914D1FF315C
:1009900091711749918015490A789A71154A9B1BE4
:1009A0005B415A43120D0A7098E71149E2E70620AD
:1009B000105613000028C5DA0F4A1049D21A083A17
:1009C0005002400D014399800D4952080A43DA80D4
:1009D00084E7C046240100D000ED00E0C101001012
:1009E000B80F002000E100E000E0FFFFEC1D002058
:1009F00001BDFFFFAAAA0000F20F002000F0FFFFD8
:100A000000F8FFFF70B501240443EFF30581EFF315
:100A1000108C72B6214A1368002BFCD0BFF35F8F95
:100A20001F4B05001F4AED1A6D416A43120D1E4D02
:100A30008900AE6852B27658A6421CD0062159569B
:100A400091421CD012215956914222D01E21595652
:100A5000914220D02A2159560324914210D0134BA1
:100A600019781A708171BFF35F8F00220B4B1A60E7
:100A70008CF3108870BDAB680D4C5C50EFE7002420
:100A80006100091989005B18FF2199710949998052
:100A9000E5E70124F4E70224F2E7C046240100D090
:100AA000B80F0020AAAA000000ED00E0EC1D002015
:100AB000C101001001BDFFFF024B9C46614489004B
:100AC000016070474000003470B5114C114DAC42CC
:100AD0000FD2FF262368002B0CD0FFF735FD010055
:100AE0002000FFF7E9FFA680BFF35F8F0834AC4218
:100AF000F0D370BDFFF728FD01002000FFF7DCFFF9
:100B00002671BFF35F8F0834AC42E3D3F1E7C046F0
:100B1000781000208010002010B50400FFF714FDAD
:100B200001002000FFF7C8FFFF232371BFF35F8F91
:100B300010BDC04610B504000120FFF711FD034BA6
:100B4000C3189B002360BFF35F8F10BD40000034CB
:100B50000A4B1968EFF3108072B60A68002AFCD0BD
:100B6000BFF35F8F1B68BFF35F8F00221A6080F3B3
:100B7000108840BF002000217047C046D81D0020CB
:100B8000F0B5DE4657464E464546E0B587B0EFF332
:100B90000583032201251A40954091008846A94605
:100BA000B34B03925C58B34B1D60B34B04934B465D
:100BB000B24843630823E55E002D37DAA3881BB2F1
:100BC000002B00DBADE0A379002B00D0EEE0082382
:100BD000E05E002820DB430062691B18DB00D318AD
:100BE0009E68DD68731C00D111E1A44801004144F6
:100BF000826A0B69B71A9B1A9F4215D30123026AB6
:100C0000039883401A420FD09C4800F0C9FA8D42E5
:100C100002DCCCD18642CAD940BF07B0F0BCBB468B
:100C2000B246A946A046F0BD0E61EDE762696B00D1
:100C300092465B19DB009A4453469E68DF6800F0D9
:100C4000AFFA8F42BADC00D103E1002F00DAE8E00E
:100C50005246534652691B699346049A934200D107
:100C6000D9E052460821605E52880004594610437C
:100C70009847009001910099019A0B0010001343CE
:100C800000D1CEE013000A00B61A9F41002806DB0F
:100C90007A4800F085FA009E019F36184F4153466E
:100CA0009E60DF6000229A5E002A00DA86E7530029
:100CB00099186069C900411802938B68C9689B46FE
:100CC000B94200DD7AE702D1B34200D976E70823C2
:100CD0009C46A444059565462281A446029B2C00AF
:100CE00006E053009918C90041188D68C968AB46E1
:100CF0009B18DB00C318B94206DC00D1B3E01C002E
:100D00000023E25E002AECDA230064469C46534648
:100D10001A806346059D1D80A3881BB2002B00DA54
:100D200051E72269EFF3108172B61368002BFCD0F3
:100D3000BFF35F8F0123A7885B42A3803FB2236983
:100D4000BFF35F8F00221A6081F31088002F00DA52
:100D500039E72300083322009A4666697B00DB19D5
:100D6000DB00F318996850468C460824115FDD6853
:100D7000002910DB029306E0AB4244D00023E15E81
:100D80002000002906DB4C006418E4003419E368F5
:100D9000AB42F1DD029B078000201F5E1980002F0F
:100DA000DCDA1400A379002B00D110E70023A37133
:100DB00026000823E15E08364B1C00D12CE7080012
:100DC000A246656902E03E004B1C1AD04B005B183E
:100DD000DB00EF180A008C46E95E7B881BB2002B13
:100DE000F1DA01235B42DC17BB60FC60824205D074
:100DF000534631801B893B8053461A8160464B1C09
:100E0000E4D15446E5E6A3686345B7D9C2E76B1C55
:100E100000D0EAE6F8E65B4658461B69984700288A
:100E20001BD153461B8822692381EFF3108372B6CE
:100E300011680029FCD0BFF35F8F514662880A8099
:100E400022696580BFF35F8F0021116083F31088F2
:100E5000B4E6864200D8F8E6B0E65B461A685B68FE
:100E60000092019307E7B34500D848E74CE7C04636
:100E7000BC1D00203C700540810B00100040054067
:100E800070B52E4C2569002D04D00A212C48FFF79F
:100E900013FE70BD2B4E0321300000F077F9E660A1
:100EA000FFF752FB284B03229C46D02322701B06DF
:100EB0001B6801216370254B6044A3600F238000F1
:100EC00020610220638063694942A1801980023158
:100ED000198647311D83585218315A5275325C3980
:100EE00099521832013199521832013199521832FF
:100EF00001319952083518329D52023118329952F7
:100F00001832013199521832013199521832013197
:100F100099521832013199521832013199520C4BC1
:100F20000C49DC6001303562FFF75EFB01210320D4
:100F3000FFF748FB084B1D60A7E7C04600100020E4
:100F4000D81D00200040054040000034FFFF100085
:100F5000BC1D0020810B00103860054070B50100F9
:100F60000469EFF3108C72B620680028FCD0BFF340
:100F70005F8F02200D5E4C6968004019C000241884
:100F80000869002D36DB26884E80BFF35F8F002670
:100F900006608CF31088E360638804980133206155
:100FA0005B0405985B0CA26060611A1C002B1FD0CB
:100FB00093B22804628018430A69EFF3108C72B66A
:100FC0001368002BFCD0BFF35F8F8B8823808D804C
:100FD0000B69BFF35F8F00221A608CF310880B78C7
:100FE00001329A40CB6808498C4663441A6070BD50
:100FF0000122DDE7BFF35F8F002303608CF31088CD
:1010000001204042F3E7C0463C20000010B5438970
:101010000A1493421ADD53009B184269DB00D3186F
:101020000469EFF3108C72B62268002AFCD0BFF37B
:101030005F8F5A88090494B2090C8A4208D0036968
:10104000BFF35F8F00221A608CF31088002010BD60
:101050008022120214435C80012302698371BFF372
:101060005F8F002111608CF31088044902788C4650
:101070009340C268012062441360E8E73C2000000E
:10108000F0B557464E46DE464546E0B506000F0031
:1010900085B0EFF3058399468B46002B12D0384973
:1010A00000204B6ABB4206D38A6ADB1B591E8B4168
:1010B000B2424041184305B0F0BCBB46B246A94617
:1010C000A046F0BD2F4B9A46DB68984653461B78E6
:1010D0004046039300F064F84246039B0400043347
:1010E0009B009B580D001B1A39003000001BA941C2
:1010F000894510DC0DD020BF214A0020536A5B4592
:10110000D9D3926ADB1B591E8B41B242404118432E
:10111000D1E78342EFD900F04BF832003B00121ABE
:101120008B41002B1ADB00230193174B32000093F5
:1011300050463B00FFF712FF011E0FDD104B5A6AAD
:101140005A451BD39B6AB34216D35046FFF75EFF46
:101150000B4A0020536A5B45ADD3D2E7084A002012
:10116000536A5B45A7D30020926ADB1BB242404121
:101170005A1E934118439EE75A45E6D120BFE4E743
:101180000040054000100020510B001010B5024A2D
:101190000248FFF773F910BDE84000106419002001
:1011A0000300416A0A00986A596A8A42FAD1704774
:1011B000034B596A0A00986A596A9142FAD17047FA
:1011C0000040054070B504000D00174A536A19002D
:1011D000966A536A8B42FAD13000190024184D41A7
:1011E000AB4216D813D0104B2A005B6A9D4203D93C
:1011F0000D494B6A9342FCD3934207D10A4A02E05D
:10120000516A994202D1916AA142F9D370BDA642B6
:10121000E9D9054B5B6A1C005A1CEFD0012201245E
:101220006442E5175242E3E700400540F8B5040088
:1012300006200D0000F078F9002844D0374B3849DB
:10124000E3185A1E93418022120494465B429B0D80
:10125000344A9B0563441360334A136018000A68DC
:101260009043FBD12D4B314AE31859424B41802129
:101270005B0049000620995200F056F92900C00091
:1012800000F024FB0130C3091ED140270122626215
:10129000A362266BF30722D4E36A254B0620E518E8
:1012A00000232B60266300F03FF93900800000F036
:1012B0000DFB7023E26A5A400E3313402B601D4B26
:1012C00023630323A364F8BD1B4A93421ED9002362
:1012D0001A4A1B4F6262A362266BF307DCD5194BD7
:1012E000144AE3181A60656AA36A0620AD01ED1876
:1012F00000F01AF9144900F0E9FAAD0201002800E3
:1013000000F0E4FA0021FFF75DFFC5E74006800E1C
:101310009F011A003F180300B9E7C0460080FCBFD8
:1013200008C0004000E0004000F00040DC1D00204C
:101330002C10000001030000FEFF0000FFFF000072
:10134000C0FF3F00303000004E0E0000F8B5DE4612
:101350004E4657464546E0B58B4605000A991800AB
:10136000160000F0B3FA0A9B6C001F02324B64199E
:101370009C46A4006444636881469F4200D967602C
:101380002B1FDBB29846012B30D9C02380229B0152
:10139000E31812011A60294BAD0059599A460029E9
:1013A0001BD17301E026226853401E408023424631
:1013B0005B01E3181E60012A30D9802380229B0143
:1013C000E31812011A6053464A4667605A51F0BC4E
:1013D000BB46B246A946A046F8BD586900F076FA69
:1013E000013043001B18033BFDD2DAE75B46012BBB
:1013F000CBD1C02303229B01E3181A60023AA368F1
:101400001A42FCD07301E0262268AD0053401E4012
:1014100080230A4A5B019246E3181E605A462168FF
:10142000514003220A401A6001225B469A40A36899
:101430001A42FCD0C1E7C046008000406819002075
:10144000F0B546464F46D646C0B51F00344B440063
:101450009C462418A4006444636888461600FF2B49
:1014600002D880235B006360031FDBB29A46012B26
:1014700030D9C02380229B01E31812011A60294B46
:1014800085005959994600291BD17301E02622682D
:1014900053401E40802352465B01E3181E60012A20
:1014A00030D9802380229B01E31812011A60802327
:1014B0005B0063604B465F51E0BCBA46B146A8464C
:1014C000F0BD586900F002FA013043001B18033BDD
:1014D000FDD2DAE74346012BCBD1C02303229B0187
:1014E000E3181A60023AA3681A42FCD07301E0269E
:1014F0002268850053401E4080230A4A5B019146C2
:10150000E3181E6042462168514003220A401A60D7
:10151000012342469340A2681342FCD0C1E7C04673
:101520000080004068190020014B8000C0587047BF
:1015300068190020F8B5040021481E0017000D00AE
:1015400000F0C4F90100380000F0C0F9069B360431
:101550001B031E432368002B20DB1A4B1A49E31898
:101560005A1E93418022920194465B421B0B174AFC
:101570001B0363441360164A13601F000A689743F5
:10158000FBD1144B2560E2182123A060136023686F
:10159000002BFCDA0823E6601360F8BD3F232268C5
:1015A0001340AB42D9D1A3681B051B0D8342D4D194
:1015B000EE22E368D2021340B342CED1EDE7C0463B
:1015C000001BB7000040FDBF08C0004000E0004025
:1015D00000F00040043000008023024A9B000B43CF
:1015E000D362704700800540002310B50100988A3F
:1015F0001B8B984710BDC046162310B501001888F4
:1016000002331B88984710BDF8B54746CE4680B5D3
:101610000F1E18D014239946043304000025012618
:1016200098464B461888434621681B88984701C452
:10163000431E984101350640AF42F2D13000C0BC94
:10164000B946B046F8BD0126F8E7C046AA23064AC7
:101650001B0113608D235B00D3600449044B1960A8
:101660005368002BFCDA70470040024000B0FA00DB
:10167000006002407047C04610B50148FEF7E6FE24
:101680000C41001070B5074D074EB54209D2002439
:10169000013E761BB60808CD984723000134B342BB
:1016A000F9D170BD304000106C400010054B064A67
:1016B00006491A60064A074B1A6010000B689843E7
:1016C000FBD1704700E00040BFCDFBFE08C00040EA
:1016D000FE7F3C0000F00040044BDB6C002B03D18C
:1016E0008022034BD2021A607047C046000011509E
:1016F0004C201150044A054B1A60054A1368DB015F
:101700008033FBD17047C046FFFFFF0100F000406F
:1017100008C000404022034B9A675A671A67DA668E
:101720007047C04600F0014010B5FEF72BFF10BD1A
:10173000F8B52749274C284D641AA6103200302EE0
:1017400000D930222800920000F0BEF9BC2C3BD812
:1017500030202F232C196407204A801BE40F9B1B89
:10176000052B16D93700002C02D0B300771CEA50A5
:10177000001B33199B004108EB18C900C9181A60F7
:101780005A6008339942FAD1012303421CD098438E
:10179000C619B300EA50731C2F2E15D09B00EA50D7
:1017A000B31C2E2E10D09B00EA50F31C2D2E0BD014
:1017B0009B00EA50331D2C2E06D09B00EA50731D6F
:1017C0002B2E01D09B00EA50054B9D60F8BDC04612
:1017D00000010010C001001000000020C101001035
:1017E00000ED00E0002310B5294C82B0A367FFF79D
:1017F0002DFF0122274B1A60636C012BFCD10322C1
:10180000254B1A60224A936B012BFCD101330093C4
:101810000121224A22480433FFF78CFE05230121CF
:101820000093204A2048FFF785FE00220221042071
:101830001E4BFFF705FE0022012105201C4BFFF780
:10184000FFFD0022002107201A4BFFF7F9FD0022BF
:1018500000210820174BFFF7F3FD8023DB000093E6
:10186000002200210920134BFFF770FD0022104BCE
:1018700000210620FFF7E4FD0420FFF755FE0E4986
:1018800000F024F801000020FFF7A6FE02B010BD12
:10189000008000403CB0004030B00040002F68594C
:1018A00000800240008C864700C00240001BB70049
:1018B00040597307006CDC0240420F0001480421CC
:1018C000014B18472010002009160010114A936F91
:1018D0009B0813D210665166002905D0FFE7FFE789
:1018E000FFE7516F106F704704B5002801D000204A
:1018F000C04302F065FB002104BDC046F0B5146E84
:10190000556E576F166FFFF7E5FF146655665767FC
:101910001667F0BD000000D0132370B51D78012DAF
:1019200019D014DD1F48FFF767FE06001E48FFF7B9
:1019300063FE1E4C80223100200000F0C5F8022D0D
:101940002DD01B48FFF750FE1A4B186070BD1A4B84
:10195000164CA364F5E7184B144C23606360A36036
:10196000E36023616361A361E36123626362A36255
:10197000E36223636363A363E36323646364A36435
:10198000E36423656365A365E36523666366A36615
:10199000E36623676367A367E367A364D1E7064B46
:1019A000A364CEE753440000534600000012002019
:1019B0004C330000D41D0020BD19001007B560464F
:1019C00001880A0A0230DF2AFAD1C9B2820804D398
:1019D000028840880004104300E00068014A50502B
:1019E000039007BD0012002051434343C9188C46A1
:1019F000110C83B24B4310B4040C614392B280B219
:101A0000504362431C041B0C001910BC59411304C1
:101A1000120CC0185141614470470000132310B5E7
:101A200012481C78FFF7E8FD0100012C0AD003DD05
:101A300080220F4800F048F80E48FFF7D5FD0E4B06
:101A4000186010BD0A4C5422200000F03DF80B4BEA
:101A50006365A365E36523666366A366E366236740
:101A60006367A367E3672362E361E5E7534600002A
:101A7000001300204C330000D41D0020811A0010F8
:101A800007B5604601880A0A0230DF2AFAD1C9B2D6
:101A9000820804D3028840880004104300E00068F4
:101AA000014A5050039007BD001300200148042153
:101AB000014B18473010002009160010014B1B681D
:101AC0001847000030100020014B5B6818470000E9
:101AD0003010002010B5002800D110BD00F02CF906
:101AE000FBE7C04610B5094A0300146884B0002C17
:101AF00008D0012200910648524203A9A0470120C4
:101B000004B010BD00F062F90020F9E79C1D002030
:101B1000D51A001000BEFDE710B5FFF7FBFFC04669
:101B200070B5FFF7AFFD074D074EB54209D200244F
:101B3000013E761BB60808CD984723000134B34216
:101B4000F9D170BD6C40001074400010030010B556
:101B5000080011001B68984710BDC046F0B5C64686
:101B600000B5437D07000C001600002B46D0002A6C
:101B700017DD0B780A2B24D000239846012E13D0B2
:101B800001252900635C01350A2B26D0B542F8D126
:101B9000464509DCA419013C23780D3B5A425341C8
:101BA0003B7580BCB846F0BD4346E018A419F11A55
:101BB000013C3B68984723780D3B5A4253413B75A3
:101BC000EFE7037D002BD7D102210F483B689847F0
:101BD000012EDFD001239846D2E7631E5B5C0D2BFC
:101BE000D4D0884504DA4346C91AE0183B689847C0
:101BF000022105483B68A8469847C7E703681100DB
:101C000020009847CDE7C04668430010F0B5454630
:101C1000DE464E465746E0B583B091461C008046EE
:101C20000D00FFF7C5FA0023304A12184B41002B74
:101C300002DA01222E4B52422E4908008A4602F057
:101C4000D7F907006B1C03D1404602F06FF905007D
:101C5000002C27D0284E294B1C68002C18D04B464E
:101C6000002B21D1264B994602E02469002C0FD08D
:101C70002368002BF9D04B461B68002B01D09C42F7
:101C8000F3D120002A004146B0472469002CEFD14F
:101C9000002F26D1280003B0F0BCBB46B246A946AF
:101CA000A046F0BD174ED6E7154B99460A239B4632
:101CB00002E02469002CEBD02368002BF9D04B46BE
:101CC0001B68002B01D0A342F3D12A00414620001B
:101CD000B0476B465A462000DA71D91D0122B04741
:101CE000E7E7504602F064F9D4E7C04640420F00EF
:101CF000FFFFFF7F781000205D1B0010901900206F
:101D0000981900204D1B00100A4A1368002B05D1BA
:101D10000CE01A001B691032002B07D08342F8D167
:101D2000002902D118691060196170470029FCD0A0
:101D30001060FAE790190020F0B5CE46474680B50E
:101D400083B06B460600DD1D2870FFF731FA0023D3
:101D5000194A12184B41002B02DA0122174B52424A
:101D600017490800884602F043F9164B81461C6863
:101D7000002C14D0144F02E02469002C0FD02368EB
:101D8000002BF9D03B68002B01D09C42F4D12000FD
:101D900001222900FFF7E2FE2469002CEFD14B4617
:101DA000002B05D1300003B0C0BCB946B046F0BD31
:101DB000404602F0FDF8F5E740420F00FFFFFF7FCD
:101DC00078100020901900209819002070B50400A8
:101DD00002F0ACF801230100050001222000FFF70A
:101DE00015FF084B1C68002C06D06368002B05D03B
:101DF00098472469002CF8D1280070BD2469002C74
:101E0000F3D1F9E790190020F0B5002915DD0E4B4C
:101E10000D271A680D4B0E4CD3185D426B414518C7
:101E200020215B001E5F0478A64207D09369194207
:101E3000FCD101301460A842F5D1F0BD936919427C
:101E4000FCD11760F2E7C046E41D00200080FCBF13
:101E5000DC1D0020204B70B504000D1E1E682ADD1D
:101E6000002010211D4B013C1A689369194214D1BE
:101E7000013093691942FCD1136823548542F4D18F
:101E8000002E08D050239363516B183B0B4014492C
:101E90008C4662441360280070BD002E08D0502389
:101EA0009363516B183B0B400D498C4662441360A1
:101EB0000028F1D10CE0002E0AD05022074B1B68FD
:101EC0009A63596B183A0A4005498C4663441A6074
:101ED00003204042E0E7C04658190020E41D0020DE
:101EE00034100000064B10B51B68002B06D00021F3
:101EF000044A12689163044A1068984710BDC046AE
:101F000058190020E41D00205C1900200822034B12
:101F100019688B691A42FCD17047C046E41D002045
:101F2000F8B51A4F1A4B3A680500D3185842434186
:101F3000184E14331C003368002D02D0002B0FD034
:101F4000F8BD002BFCD0002120009563FEF73AFB82
:101F500020001149FEF76CFC104B35601D60EFE767
:101F60000E4B200019600C493560FEF73DFB012146
:101F70002000FEF727FB50223B689A63596B183A02
:101F80000A4007498C4663441A60D9E7E41D0020E3
:101F90000080FCBF58190020E51E00105C190020CD
:101FA0003410000070B50C4E0D001C003060002A8B
:101FB00003DB02211000FEF709FA002C03DB0221EB
:101FC0002000FEF703FA29003068FFF72FF90121FE
:101FD0000248FFF799FE70BDE41D0020401000206C
:101FE000F8B500F047F90C23194DFF22AB67052027
:101FF0001849FEF723FB184C402200212000FFF770
:102000005DFD4027002301262121144A66702783A5
:10201000A260136063545F31618445396354104A90
:1020200010496360E2602787A1620B606362E2622D
:1020300001F0EEFF80239B052E64EB6490230A4A97
:102040000120EA508022094B5202DA64F8BDC046F2
:1020500000001150150300209C190020840010502E
:10206000000110508000105010D0010000201150CD
:1020700010B501210520FEF7A5FA10BD10B500220C
:102080000021024800F016F910BDC046BC1900201E
:10209000044B1970002904D080219023024A890240
:1020A000D1507047E91D0020002011500B785B06CD
:1020B00002D14B78052B00D070478A78014B1A600B
:1020C000FAE7C04600001150F0B5C646C87800B522
:1020D0008007830F1800012B60D08F780A794B7925
:1020E0007F213940FC091B024E001343334D321946
:1020F0005201AA18977001276740577000275B05A7
:102100005B0DD7701383D076B846CA00012C32D04D
:102110002B4FBC468F016244BC46AC446746BA6054
:1021200047461760002932D0264AC90090466246C9
:10213000414451603F223F339343022837D0224924
:1021400037190A687F01D3180B602049EF19FA602C
:102150008B422ED836197601AD19EB7E1C499B06B1
:102160004A4013438022120613436A681360012019
:1021700080BCB846F0BD174FBC468F016244BC46D8
:10218000AC446746BA6247461760002908D100236D
:1021900064012C196360104BE360E8E70020E7E777
:1021A0000B4AC9009046624641445162C2E75B0057
:1021B000C5E7FFF761FAFA68CCE7C0469C19002032
:1021C0008400105004001050A01D0020FF0F10507C
:1021D00000001050800010500001105010B501F0A8
:1021E00017FF10BD10B57F200C0020404000E4090F
:1021F000110000191A00034B4001C01800F05AF8F2
:10220000012010BD9C1900207F23180000B5084054
:1022100083B00B4204D14B424B41084A01339366D1
:102220008022C9094000064B401840010021C01817
:10223000120101F0F5FE03B000BDC04600201150B0
:102240009C1900207F22130010B50B400A4200D1D8
:1022500010BDC9095B005B1804485B01C01800236E
:1022600000220349C37001F0DBFEF1E79C19002056
:10227000FFF7FFFF80220A4B520410B51A60094B8A
:1022800009491A6010000B689843FBD18022002195
:1022900052010648FFF712FC0922054B5A6710BD90
:1022A00000E0004000F0004008C000400000105076
:1022B00000001150002310B5C3820133828283765F
:1022C0000161040001F08CFE002804D080219023DD
:1022D000074A8902D150200001F05AFE002802D09E
:1022E0000123237710BD200001F08AFEFAE7C046E3
:1022F000002011507047C0467047C046002070470C
:1023000000207047024B5878431E9841C0B2704776
:10231000F0150020024B18784007C00F7047C046E8
:10232000F0150020F0B5D6464F464646C0B52F4BB7
:1023300007009A461B780E00FF2B50D1002941D090
:10234000002154222A48FFF7B9FB0022294C2A4BCE
:1023500020001A70FEF7E0FB284B1C60284C200080
:10236000143CFEF7E7FB200001F05EFD254B264DF7
:102370001C60264B002B04D0280000E000BF244B3B
:1023800018602449002489462149002388462A7878
:1023900010E043461B6862019B18002B12D05B685B
:1023A000002B0FD098472A780134E4B2511C230047
:1023B000A14209DBA242ECD89B1A5B014B445B684B
:1023C000002BEFD100200BE05346310038001F7086
:1023D000FFF706FE0028F5D03800FFF749FE012080
:1023E000E0BCBA46B146A846F0BDC0467410002015
:1023F000F0150020E8150020EA1D002044160020FA
:102400006C10002048160020E81D0020000000008D
:102410000014002014440010F0B5DE4657464E4626
:102420004546E0B5C84B91B002931B78FF2B00D115
:102430003EE1C64BC64E9B465F46C64B0DAC019374
:10244000C54B009335686A69EFF3108172B6136863
:10245000002BFCD0BFF35F8FA9612800210001F0A1
:1024600013FB6A69AB69BFF35F8F0021116083F3CF
:102470001088002800D11BE16378082BE2D89B006C
:10248000FB589F466368002BDCD0A0689847D9E7CB
:102490007F222179AF4D0A405300EB189846C809B6
:1024A000804440460123303005799D43057105790C
:1024B00003339D430571002A00D100E14346A74A3A
:1024C0001B7D1278934200D3EFE0A54A5B011568AB
:1024D000ED18002D00D1EBE0A36862792078AD699A
:1024E000A847AFE79F4A1378002B00D1E0E01378AC
:1024F000013BDBB213701378002BA3D10122954D61
:1025000001212B78042013432B703423EA5C8A4387
:10251000EA54EA5C8243EA540133EA5C8A43EA54AF
:10252000EA5C8243EA54237800209B4600F09EFC3C
:10253000602223791A40602A00D1EFE0402A00D1BE
:10254000F5E0DB06DB0E012B00D113E1022B00D1FD
:10255000C7E0002B00D0E1E0202A00D11CE2002AD5
:1025600000D0DBE06379092B00D9D7E07E4A9B00DD
:10257000D3589F46774D2B78DB0700D462E7FDF7F1
:10258000BDFE5FE7019BDB78DB0700D45AE760689C
:10259000FFF7B2FE56E76F4D2B78DB0700D451E70B
:1025A00028780007C00FFDF7A7FE4BE723786A499C
:1025B00099468B46694B6A4998468A4639001A788B
:1025C00047460023B04600254E46894610E0534654
:1025D0001B686A019B18002B00D176E0DB68300095
:1025E00098473A780135EDB2511C2B008D4244DCFE
:1025F0009542ECD39B1A5B015B44EFE72378584983
:102600009946564B8A4698463100BB464E461A7844
:1026100000250023474689460FE053461B686A01A0
:102620009B18002B55D0DB68300098473A7801356D
:10263000EDB2511C2B008D4207DC9542EDD39B1A65
:10264000009A5B0194466344EDE7019D542200210A
:102650002800FFF733FA1022FF214448FFF72EFA33
:1026600028002022FF2114304E465F46FFF726FA4D
:1026700000F0F2FBFDF73EFEE4E6364D5422002169
:102680002800FFF71BFA1022FF21281DFFF716FA7A
:1026900028002022FF21143046464F46FFF70EFA4D
:1026A00000F0DAFB2379AB70CCE6501C984213DAC9
:1026B00011B0F0BCBB46B246A946A046F0BDA36827
:1026C0006279207800F0E6FBBCE646464F46214D95
:1026D000E6E74E465F46CBE71F4D9B1A5B015D194F
:1026E000FAE67023217A0B4218D1C80982460F33CB
:1026F0000B405B0098461948EB1853441B7D00784B
:102700009946834266D216485B0100688146994427
:10271000002A00D15FE14B46002B68D120780021D0
:10272000FFF772FD80212078FFF76EFD8AE61048E2
:1027300000F09CFB012158460EAAFDF727FE002859
:1027400000D07FE6EAE7C046741000206C4300101A
:1027500048160020F015002014440010E81D002049
:1027600000140020EA1D002090430010F415002002
:102770008D030010237A0F2BD0D8CF4AEB181B798A
:102780001578AB423ED3691C9942C7DB5D1BCB4B2E
:102790006D01ED18686900F069FB012158466B690D
:1027A0000EAA9847002800D04CE660221500237935
:1027B0001D401A42B2D163790A3B012BAED800F01A
:1027C00055FB63790A2B00D199E158460EA900F018
:1027D000D9FA37E6431C4B4500DAF7E04B461B1AA3
:1027E0005B019946B5488144002A00D1F3E04B468D
:1027F000586900F03BFB4B46012158465B690EAA25
:1028000098479CE7AE4A5B011568ED18002DC1D1D1
:1028100084E7A37999466B789945D6D06B78002BDD
:1028200000D033E14B466B70002B00D12BE14846C2
:102830000138C0B2FDF768FD002800D17EE1437881
:102840000793022B00D079E10122C179B1468B11A7
:10285000491113400A40302112015B0113432A78C9
:10286000A8468A4313432B7009239A46824456464E
:10287000BA46C37882781B021343C31805938E4B64
:1028800004938E4B08938E4B09938E4B0A93059BB2
:10289000B34200D855E1737801220B2B03D1337872
:1028A000F278F6187378042B00D044E1059B0027DA
:1028B0009B1B9BB20693049B0B921D7800230393F2
:1028C0001BE0099A7B011568ED18002D00D132E15B
:1028D000310058462B69069A98478446082803D940
:1028E000069A824200D313E1049B01371D78FFB2A0
:1028F0006B1C03979F4200DD1DE1BD42E1D8039BA5
:102900005D1B089B6D019C466544E1E76B780CAA52
:1029100002321370584601230EA900F049FA91E5DE
:10292000E3881A0AD8B20F2A00D9F7E6664993005D
:10293000CB589F460EA800F09FFA5846A179FFF7A2
:102940009DFB02222B7813432B707BE5E388012B40
:1029500000D0E3E608222B78584693430EA92B704B
:1029600000F010FA6EE5022029780CAB9A1C8B0659
:102970008908DB0F01400B431380584602230EA940
:1029800000F016FA5EE5E388012B00D0C6E60822C7
:102990002B7813432B7018E7237A0F2B00D9BDE651
:1029A000EB181D79444B1B789D4228D2444B6D0196
:1029B0001B685D19002D00D1B0E6686900F056FA79
:1029C000012158466B690EAA9847B8E6002A00D044
:1029D000A4E6002399466279022013000392834300
:1029E000012B15D0002A00D098E62B004344534415
:1029F00030331B790CAA9B07DB0F0232BCE75A1C51
:102A0000AA4200DA8AE6ED1A2C4B6D01ED18D4E7E4
:102A1000E388002B12D1029B1878039B012B23D053
:102A2000FFF7F2FB43460221EB18534430331A7987
:102A30000A4301211A711A790A431A714B46002B75
:102A400000D1FFE4586900F011FA4B4601215B699F
:102A50000EAA58469847002000F008FA3523EB5C90
:102A6000DB0700D5EEE4B0E6FFF7ECFB43460221BE
:102A7000EB18534430331A798A431A711A7903993F
:102A80008A431A71DAE7FDF735FC9EE600215846C5
:102A9000FFF7FEFA5846FFF7A1FBAB78074903930F
:102AA0000491054B064998461A78059100232900A0
:102AB0001D008A461BE0C046E81D0020144400109B
:102AC0000014002004160020B8430010059B6A0182
:102AD0001B689B18002B4DD0DB685846984743462F
:102AE0001A780135EDB2511C2B008D422EDC954237
:102AF000ECD39B1A049A5B0194466344ECE70CAB5D
:102B00009A1C584601230EA9157000F051F999E45A
:102B10000B9A012A4FD0002A3CD00023B07804E061
:102B20000133DBB20F71934234D2C118C9B24144B0
:102B30000D79FF2DF4D04E464546574600236B7065
:102B4000ECE54E465746FDF7D3FB3EE6554654228C
:102B500000212800FEF7B2FF1022FF21281DFEF7FA
:102B6000ADFF28002022FF211430FEF7A7FF039BB2
:102B7000AB7057E65546FAE7FDF7CAFB021E00D1D7
:102B8000CCE5D37891781B020B4358460EA900F090
:102B90000FF9D4E565463B002A0031000A9800F0A1
:102BA000E3FDAC46049B039A1B78664401339342D1
:102BB00000DB6CE6BFE7174B29699942ADD1079A54
:102BC000ABE7FFF79BFB021E00D1A7E55846137841
:102BD0000EA900F0EDF8B2E52189FDF79DFB021E7C
:102BE000F4D19BE5022A0FD0FFF78AFB021EC8D161
:102BF00094E5FDF785FB021E00D18FE512235846B0
:102C00000EA900F0D5F89AE5FDF77EFB021EB8D1BB
:102C100084E5C0464D310010F8B557464E46DE46B5
:102C200045460C00E0B516001F00002A3CD070237A
:102C300098461E4B00259B461D4B9A461AE05B4664
:102C40001B78200099465346997800F04FFD0028E4
:102C50001CD021004846FFF737FA002816D0A37889
:102C6000DA09012A19D00A9A013513702378E41879
:102C7000B54219DA6378052B08D1E3789B079B0FDF
:102C8000BB4203D14246A3781A42D8D00020F0BC00
:102C9000BB46B246A946A046F8BD0B9A0135137053
:102CA0002378E418B542E5DB0120F0E7741000203A
:102CB000F0150020702270B58B780C001A4201D0FC
:102CC000002070BD064B20001D78064B997800F05F
:102CD0000DFD0028F4D021002800FFF7F5F9F0E7FA
:102CE00074100020F01500200B007F2010B5184054
:102CF000DB0934334000044AC018044B1168C01883
:102D000000F0B0FC10BDC04644160020F0150020B5
:102D10000B007F2010B51840DB0934334000044A13
:102D2000C018044B1168C01800F0C4FC10BDC046A8
:102D300044160020F015002070B57F240F480C4089
:102D400064000419CD09641930342079C00701D515
:102D5000002070BD0126257909483543007825718A
:102D6000FFF740FA0028F4D101222379934323711D
:102D70002379033293432371EAE7C046F01500201C
:102D80007410002070B5094C0600082220000D00C8
:102D9000FEF79AFE00238021E360A3602B783000C9
:102DA000994300220023FFF7C7FF70BD9015002054
:102DB000F8B5CE4647469046254E80B58146082256
:102DC00030000D001F00FEF77FFE4346B360002376
:102DD000F381EC79AB7924021C43231CBC4200D95B
:102DE0003B1C9FB2B381002C0DD0002F17D0424660
:102DF000002A2BD0402F1BD89FB233787F2B1CD8B2
:102E00000021144A0FE080212B7800229943484684
:102E10000023FFF791FFC0BCB946B046F8BD7F2341
:102E20000022317899433B004846FFF785FFF2E7DF
:102E300040239FB233787F2BE2D9064C3A004146BB
:102E40002000FEF741FE80212200ECE70020E2E7AF
:102E5000901500205015002010B5142200210248C2
:102E6000FEF72CFE10BDC04690150020014B1861E6
:102E70007047C0469015002010B5054C010008228F
:102E80002000FEF721FE0023A360E36010BDC046D2
:102E90009015002070B5384C1D0023780600DA0923
:102EA000C9098A4210D00020002D00D070BD210039
:102EB0003000FFF7FBF82369002B03D02200032129
:102EC000300098470120F1E77F2B06D8A068002842
:102ED00034D02A002949FEF7F7FDE289A16852198A
:102EE000E38892B24919E281A160934214D03F2D48
:102EF00012D9A389981A051C80B240282AD82078B4
:102F0000ADB27F2828D800219A4232D01B4A2B002C
:102F10003000FFF711FFC9E72369002B05D022001D
:102F200002213000984700280AD08021237800220F
:102F3000994330000023FFF7FFFEB7E70020B5E715
:102F400000213000FFF760F930008021FFF75CF9C5
:102F50000120ABE74025D2E79A4207D0074C2A0070
:102F60002000FEF7B1FD80212200D0E78021002261
:102F7000CDE70022CBE7C046901500205015002079
:102F800070B50400FFF7BEF9002800D170BDFFF74F
:102F9000C1F90028FAD1C8236343124DEE18F17825
:102FA0000029F3D010335D19280000F057FD3F28A9
:102FB000ECD90020F178FFF797FE0028E6D0280032
:102FC00000F04CFDF1783F2807D9074BE201D218F9
:102FD00000204023FFF7B0FED8E70020FFF798FE5F
:102FE000D4E7C0468814002004140020F8B504007B
:102FF000FFF788F9002801D10020F8BDFFF78AF912
:103000000028F9D1C82565432E00134F2436F61940
:10301000300000F005FD0028EED07F190020B978BF
:10302000FFF762FE0028E7D00C4DE4016519290086
:103030004022300000F076FDB978041E08D003006D
:103040002A000020FFF778FE0028D5D02000D4E722
:103050000020FFF75DFECFE7881400204414002015
:10306000F0B50025184C83B0C82200212000FEF7DF
:1030700025FD164B21001D70FF236371E1235B02C8
:10308000A360200008234022A37338310095073B3A
:10309000103000F08FFC27000123210020002600C3
:1030A000402278310093B837243000F083FCC036DA
:1030B0003800FDF731FD3000FDF72EFDE561276298
:1030C0002663656303B0F0BD8814002084140020DB
:1030D0000A4A116B136A00290CD0002B07D0002379
:1030E000D36153631363002313620120704753635A
:1030F0001363FAE7002BF8D0D161F4E788140020BD
:1031000070B50F4C052200212000FEF7D7FC0D4DB5
:103110002B78DA0707D50C4C9B070CD50121200032
:1031200000F0A2FE70BD2000103000F07DFE2B7874
:10313000054C9B07F2D4200000F076FEEEE7C04677
:103140008814002084140020AC140020F0B54B79C2
:10315000060083B0022B02D18B79022B03D000250D
:10316000280003B0F0BD204FBB78002BF7D18B783F
:1031700009253B700C780C196378242B07D00CE0E0
:103180002378E4185D196378ADB2242B05D19542FC
:10319000F6D90020FFF7F4FEE2E71A00052B15D060
:1031A000042AF6D163790A2BF3D1104B27780193C7
:1031B0000133009330000223E119023AFFF72CFD9E
:1031C0000028CCD00E35ED19ADB2E2E72100300079
:1031D000FFF770FD0028C2D0A3787B7023785D19BB
:1031E000E4186278ADB2DBE7881400208A1400206E
:1031F000F8B5602314001278050013400020202B3E
:1032000007D1304A6379277916781B023B439E42E7
:1032100000D0F8BD6378222B1AD007D8202B34D0E9
:10322000212BF6D101293ED00120F2E7232BF0D14A
:10323000012940D00329F7D1234B002BF4D0E178AA
:10324000A37809020020194300E000BF0120E0E755
:10325000012930D00329E7D101252E00A378E47895
:10326000023924021C43147126402432100071409C
:1032700000F0FAFD154B002BD6D06208002031007B
:103280002A4000E000BF0120C3E701290BD0032939
:10329000CAD10F4B002BC7D008320020110000E02C
:1032A00000BF0120B5E7072321002800094AFFF7E6
:1032B0007FFD0120ADE721002800FFF763FD01201D
:1032C000A7E7C046881400200000000000000000AE
:1032D0000000000090140020F0B54F464646D64648
:1032E000C0B5364D8046EA780C001F008A423CD0BB
:1032F000AB788B4210D00020E0BCBA46B146A8465D
:10330000F0BD2F4B002B04D02E4800F09FFB00286F
:1033100051D00020FFF734FEAB78A34201D001204A
:10332000EAE7294B002B02D0002000E000BF00207C
:10333000FFF75CFE0028F2D1244C200000F070FB67
:103340000028ECD1002FEAD0BF06E8D1243C40464B
:10335000A178FFF7C9FC0028E1D0002300224046F5
:10336000A178FFF7E9FC0120C6E79AB210239A463C
:10337000174EAA443100504600F09AFC154B002B22
:10338000BFD06B79FF2BBCD0002FBAD0F219914679
:1033900003E001364E45B4D06B7932789A42F8D1C9
:1033A000504600F053FB0028F3D15346103B5979A7
:1033B00000E000BFEDE700E000BFAAE788140020AE
:1033C000000000009814002000000000AC14002051
:1033D000041400200000000070B5124C84B0CC2210
:1033E00000212000FEF76AFB2300402520000E4E3E
:1033F0008C3302960093002200230021039501954F
:10340000683000F0CBF94036201D2834002301221B
:103410000021039502960195009400F0BFF904B0D5
:1034200070BDC0468C1700200C17002010B5054C4D
:10343000200000F0E9F92000643800F0E5F90120EF
:1034400010BDC046F417002070B5074C00252000C1
:103450007030257000F0E8FC20000C3000F0E4FC37
:1034600069236571E55470BD8C170020F8B5574687
:103470004546DE464E46E0B54B7980460F00FF2BB1
:1034800057D13E4B994669234946CB5C002B50D11E
:103490004E79002E4DD1BB783C780B703B793C19AE
:1034A000002B43D070234B449A460C234B449B463D
:1034B000A51803E0AC4239D22378E4186378052BD1
:1034C000F8D1AC4232D221004046FFF7F3FB00288E
:1034D0002FD0A3780136F6B2DB09012B30D050464D
:1034E00000F0A2FC69234946A2780220CA546379FD
:1034F00022791B021343224A5B0594465B0D634409
:1035000068215A4253414A46525C5B00824313434E
:103510004A46535451464046083900F0DFF9002826
:1035200007D02378E4183B79B342C7D8E01B80B2B8
:1035300000E00020F0BCBB46B246A946A046F8BD5C
:10354000584600F071FC5A46A3780C3A53716379DF
:1035500021791B020B430A495B058C465B0D6344D2
:1035600059424B41022011795B0081430B4359467C
:1035700000200839137100F07DF9D2E78C17002084
:1035800000FEFFFFF8B5692506001D481F00455DD8
:103590008D4215D043798B4201D00020F8BD194BE4
:1035A000002B04D039040020090C00E000BF164CA9
:1035B0003000210000F05EF9002819D00120EDE76D
:1035C0007423C35A002B0DD1104B002B04D00020C4
:1035D0000F49BAB200E000BF30000E4900F07EF99A
:1035E0000120DBE7C16EBAB2703000F061FBEBE79F
:1035F0003A002100300000F009F90120CEE7C04672
:103600008C17002000000000901700200000000030
:103610000C170020F417002000B5030083B0002928
:1036200010D00020012B07D80A78002A04D00C48BB
:10363000C2540120012A01D003B000BD1800FEF7DA
:1036400071FEF9E701236A46002001A99380FEF785
:1036500069FE0028F0D00122014B1A70ECE7C04649
:10366000E4150020037870B5DB0704000E00DD0FC1
:10367000002B17D103785B0701D5280070BD01210D
:103680003000494200F0A4FC2378DB07DD0F002B5B
:103690000AD123785B0708D4042223780125134339
:1036A000237002E00025E8E70025300000F080FCF0
:1036B000E3E7C04670B50C00012106004942200036
:1036C00000F086FC33785B07DD0F002B04DB200065
:1036D00000F06EFC280070BD3378DB0704D40422B0
:1036E000337893433370F2E70025F0E743790279AA
:1036F0001B021343C2785B0592075B0D920F022AEF
:103700001DD0032A0CD00020012A08D102394A42D8
:103710005141124A9446614499424041C0B27047B7
:1037200002394A1E91410E4A494211408022D2007C
:1037300094460020614499424041C0B2EFE702291B
:1037400005D0002040229A424041C0B2E7E7054A36
:10375000981843425841C0B2E1E7C046FF03000059
:1037600040FCFFFF00FEFFFF8A1870B5914207D2B0
:103770007F264C78052C04D00C7809198A42F8D899
:1037800070BD34008D782C4064000419ED09635538
:103790000C7809198A42ECD8F2E7C046F0B5C64663
:1037A00000B582B0150008AA40CA040017886A460E
:1037B000928D012090460A0021780240814320002A
:1037C000114321703A00009331000123083000F0CA
:1037D000F1F8002E01D0002F08D10A9B0120636070
:1037E0004346638002B080BCB846F0BD26001C365C
:1037F0003000FDF791F90023002D01D033000026A1
:103800006361A661E9E7C04601207047F8B502246C
:103810000B7807001C4063425C41144B64421C401F
:10382000134B08009C4608300D001600644400F05D
:10383000F7F8002807D1002E05D0344203D1012427
:103840002B781C4201D00020F8BD38006978FFF7C2
:103850004BFA0028F7D02B781C42F4D10023002229
:1038600038006978FFF768FAEEE7C04640FEFFFFD0
:10387000FF010000F8B50D000835060028000C0017
:1038800000F0CEF8002803D0012723781F4201D092
:103890000020F8BD30006178FFF726FA0028F7D045
:1038A00028006288616800F03DF9237805001F4018
:1038B00000280BD0002FEBD1030062683000617844
:1038C000FFF73AFA0028E3D02800E2E7002FDFD123
:1038D00030006178FFF71CFADAE7C046F8B5CE464B
:1038E000474680B58A8906000C000B78002A07D16C
:1038F00001251D4240D00020C0BCB946B046F8BDED
:103900009B0733D42A4B40259946270008373800B7
:1039100000F0A4F88542EED80122237890461A429E
:10392000E9D130006178FFF7DFF90028E3D03800F3
:1039300000F094F8424623781A40854231D8002A94
:10394000D9D14A46638802401D1C934200D9151CF8
:10395000ADB200226178002D00D062682B003000EB
:10396000FFF7EAF90028C6D02800C5E7FE23802526
:103970001B029946AD00C8E74978FFF7B5F9002862
:10398000B9D023781D42B6D1638800226178002B1C
:1039900000D062683000FFF7CFF90028ABD0608814
:1039A000AAE7002AA7D130006178FFF7B1F9A2E7B2
:1039B000C0FF0000F0B5C64600B504006846057EAD
:1039C0008020884617001E000002824226D8E06848
:1039D000002803D00121494200F0FAFA20690028AA
:1039E00003D00121494200F0F3FA434623607304F7
:1039F0005B0CED031D430023E0686381A780E58035
:103A00002381002801D000F0D3FA2069002801D0DA
:103A100000F0CEFA012080BCB846F0BD0020FAE7E5
:103A200010B5048941898288A3B288B28C4207D339
:103A30001B1A9BB2101C9A4200D9181C80B210BDF0
:103A40005100091A5B189BB2F4E7C046038940890C
:103A5000181A43425841C0B27047C04610B5048995
:103A600041898288A3B288B28C4207D31B1A9BB2C9
:103A700000209A4201D9D21A90B210BD5100091A01
:103A80005B189BB2F4E7C04670B5040000690E00F5
:103A9000002803D00121494200F09AFA2589608963
:103AA000A288A9B283B2854232D3CD1AADB2002D1D
:103AB00028D0AA4208D291422FD3891A8BB26381AF
:103AC0009A4203D89B1A9BB29A42FBD9E28821689A
:103AD0005204520C53433000C918FDF7F5FF6389B7
:103AE0000125591C89B2A2888B420DD900215200B0
:103AF000891A89B220696181002801D000F058FA42
:103B0000280070BD618989B252009142F2DBEFE773
:103B10005500ED1A4D19ADB2C9E789188BB2638112
:103B2000CEE7C046F0B546464F46D646C0B506007D
:103B3000006989469046002803D00121494200F0DF
:103B400047FA31897289B5888BB294B2914254D3C5
:103B50001F1BBFB2002F4AD0BD4205D2AB4251D28B
:103B60005B199CB22F0074814346B8453DD89FB283
:103B7000A54203D8641BA4B2A542FBD9F2883168E0
:103B80005204520C904662432B1B9BB2891842464A
:103B90009F4225D953439BB21A0048469A46FDF7E7
:103BA00093FF434648467D1B64195C43316850448B
:103BB000A2B2FDF789FF7189B588CB199BB26A0063
:103BC000994216D99B1A9BB230697381002801D0A3
:103BD00000F0EEF93800E0BCBA46B146A846F0BDA8
:103BE00048467A43FDF770FFE5E73B1CBFE7738962
:103BF0009BB26A009342E7DBE4E76F003F1BDF19EB
:103C0000BFB2A7E75B1B9CB2ACE7C046F8B50400A7
:103C1000C0680E00002803D00121494200F0D8F905
:103C2000258920896189A288ADB283B28FB288428A
:103C300029D3DB1B9BB29A4209D8E779FF0906D149
:103C4000E068002801D000F0B3F93800F8BD2B007F
:103C500095421DD39B1A9BB29342FBD2E288206807
:103C60005204520C53433100C018FDF72DFF6B1C5A
:103C70009BB2A2889D4217D9002352009B1A9BB287
:103C800001272381DCE75100C91B5B189BB2D2E7F7
:103C9000E28820685204520C53433100C018FDF7EB
:103CA00013FF0135A288ABB252009342E8DBE5E78F
:103CB000F0B54E465746DE464546E0B58946060015
:103CC000170083B0002A67D0C068002803D0012104
:103CD000494200F07DF93389F2799BB298467389A5
:103CE000B5889BB2D20940D198455ED26A00D31AFA
:103CF00043449BB2AB425DD2EB1A1A1C9BB2BB424F
:103D000000D93A1C97B27B1B9BB20193F3885B04EA
:103D10005B0C9A464346DB199BB29B464446A8453A
:103D200003D3641BA4B2AC42FBD253466343306856
:103D30002D1BADB2C018BD424BD3524649467A4303
:103D4000FDF7C2FEB3885B00D84501D89B4503DB75
:103D50005A46D31A9BB29B465B463D003381F068BE
:103D600000281AD000F024F917E0F2885204520C0F
:103D70009246AF4220D298454DD34246D21A92B2D3
:103D80006900781B80B2D21901908A4233DA434627
:103D9000FB189BB29B46C1E70025280003B0F0BC8E
:103DA000BB46B246A946A046F0BD4246D31A9BB2D6
:103DB000AB42A1D30025D2E7002DD0D07F1B5743C3
:103DC00098465A19002392B2B94493462F000193A2
:103DD000A4E753465D43ADB22A004946FDF774FEA1
:103DE000019B2900E21853465A43306892B2494475
:103DF000FDF76AFEA6E75A1992B29346D21B92B219
:103E0000904693420CD94346591A8BB29846FB18F8
:103E10009BB29B4682E76900CA1A424492B2B0E75D
:103E2000914200DD7AE7EEE710B50400C068002893
:103E300003D00121494200F0CBF82069002803D0CB
:103E40000121494200F0C4F80023E0686381238126
:103E5000002801D000F0ACF82069002801D000F063
:103E6000A7F8012010BDC04670B50400C0680D0061
:103E7000002803D00121494200F0AAF82069002857
:103E800003D00121494200F0A3F87F21E379ED013D
:103E90001940E0682943E171002801D000F088F85A
:103EA0002069002801D000F083F8012070BDC046D1
:103EB00010B51920FCF7A4FAD0238022E1211B06BB
:103EC00092045A620448054B0022186049020123FB
:103ED000FEF768F810BDC04600400340E01D00201A
:103EE00010B5024800F004F810BDC046CC1D0020FB
:103EF00010B588B004000D2200216846FDF7DEFDF4
:103F00000D22002104A8FDF7D9FD4B236A4668461F
:103F1000137004A90D2200F043F815210822200097
:103F20006944FDF7D1FD08B010BDC04610B5830748
:103F30000AD00300032102E001330B4205D01A78B6
:103F4000002AF9D1181A10BD030019680C4A0D4C4B
:103F50008A188A4322420FD15968094A04338A18C1
:103F60008A43224208D15968054A04338A188A4391
:103F70002242F1D000E001331A78002AFBD1E1E7B8
:103F8000FFFEFEFE80808080F8B5C0460000000085
:103F900001B40248844601BC604700BF110A0020FA
:103FA00001B40248844601BC604700BFE10D002017
:103FB00001B40248844601BC604700BFE50100200F
:103FC00001B40248844601BC604700BF1D0F0020B9
:103FD00001B40248844601BC604700BF590100207B
:103FE00001B40248844601BC604700BFE9090020D3
:103FF00001B40248844601BC604700BFC1000020F4
:1040000001B40248844601BC604700BFA10A0020F9
:1040100001B40248844601BC604700BF0D02002085
:1040200001B40248844601BC604700BF510A002029
:10403000AD160010D9160010BD180010AD1A0010F2
:10404000191900101D1A0010E5170010F5160010C0
:104050001517001029170010C90A00103117001099
:10406000810E001075160010A1050010E13E001031
:04407000B102001089
:1040740056696265737469636B0000005669626512
:10408400737469636B205250323034300000000086
:1040940056532D5250323034302D303030320000EF
:1040A40056696265737469636B2053657269616CE8
:1040B400000000000A2A2A2A2050414E4943202A9F
:1040C4002A2A0A000A0000004E6F207370696E6C81
:1040D4006F636B732061726520617661696C6162E4
:1040E4006C650000486172647761726520616C617F
:1040F400726D20256420616C726561647920636C43
:1041040061696D65640000004861726420617373C5
:104114006572740052656C6561736500626F6F74DB
:10412400325F77323571303830000000322E322E53
:10413400300000007069636F0000000076696265FA
:10414400737469636B5F7270323034300000000046
:104154004D6179203237203230323600556E686135
:104164006E646C65642049525120307825780A00C9
:10417400657020253032582077617320616C726538
:1041840061647920617661696C61626C650000002C
:1041940043616E277420636F6E74696E7565207851
:1041A400666572206F6E20696E616374697665203E
:1041B40065702025303258004C4544000904000045
:1041C4000A00000000000306B2000800010000001D
:1041D400A800080002000200A000140003005749D0
:1041E4004E5553420000000000000000000084000F
:1041F400040007002A00440065007600690063009B
:10420400650049006E00740065007200660061007C
:104214006300650047005500490044007300000036
:1042240050007B0041004600370037004300330054
:10423400380046002D0037004300380043002D00AD
:1042440034004400380036002D00390046003200A6
:1042540044002D0046003700430034003000410084
:104264003800450030003800450035007D0000006E
:1042740000000000050F2100011C100500DF60DDB7
:10428400D88945C74C9CD2659D9E648A9F000003D3
:1042940006B2002000000000090262000301008051
:1042A40032080B00020202000009040000010202AD
:1042B4000004052400200105240100010424020651
:1042C4000524060001070581030800100904010004
:1042D400020A0000000705020240000007058202EE
:1042E4004000000904020002FF0000000705030269
:1042F4004000000705830240000000001201100284
:10430400EF0201408A2E0240000101020301000075
:1043140006005250D3F07542184100100600525066
:10432400E182887F2041001006005250ABB36053F5
:104334003041001006005250BBFF3CB6384100101B
:1043440006005250861C03024041001006005250E1
:104354005422A29D5441001005005250DE65F468B9
:104364004C5400100D0A000044240010AC25001029
:10437400FC250010842500109625001074250010DB
:10438400E4240010902400108424001066290010F6
:104394004C2900101C270010862900101C2700102F
:1043A40034290010202900101C2700100C290010AB
:1043B400122800101C270010F22B0010E42B001010
:1043C400D82B00101C2700101C270010C22B001033
:1043D400E42B00101C2700101C2700101C270010C1
:1043E4001C2700101C2700101C2700101C2700107D
:1043F400782B00106E0B00206E0B0020B80B0020F1
:10440400D80B00201C0C00202E0C0020640B002074
:104414000000000061300010D130001001310010A4
:104424004D310010F1310010D932001000000000AD
:1044340000000000D93300102D340010493400105E
:104444006D3400108D03001085350010000000004D
:104454000900525000000002BC41001008005250F4
:044464001210020030
:1044680014430010204300102C4300103843001060
:1044780044430010504300105C4300106044001097
:044488005444001088
:10448C00F0B5C646150000B504001E000268EFF337
:10449C00108172B61368002BFCD0BFF35F8F04231E
:1044AC00E3562268002B2BDBBFF35F8F00201060DC
:1044BC0081F31088D02212061278002752B290464F
:1044CC009A420ED1002080BCB846F0BDBFF35F8F7E
:1044DC00176081F310882800310000F019FF0028C4
:1044EC00F0D12268EFF3108172B61368002BFCD068
:1044FC00BFF35F8F237922687F2BE7D9434602E015
:10450C00D0231B061B682371BFF35F8F002313603E
:10451C0081F310880120D6E7F0B5C64600B50D0032
:10452C00040000F005FFFA2206000F00002328000B
:10453C000021920000F0DCFE36184F41002F02DA09
:10454C000126174F7642D0231B061B680025984680
:10455C000AE0BFF35F8F156081F3108830003900DB
:10456C0000F0D6FE002818D12268EFF3108172B645
:10457C001368002BFCD0BFF35F8F237922687F2B4D
:10458C00E7D943462371BFF35F8F0023136081F398
:10459C001088012080BCB846F0BD0020FAE7C04668
:1045AC00FFFFFF7F0268EFF3108172B61368002BD8
:1045BC00FCD0BFF35F8FFF2303710368BFF35F8FE2
:1045CC0000221A6081F3108840BF70470022154BFF
:1045DC0010B59A60DA601A615A619A61DA611A62EE
:1045EC005A629A62DA621A635A639A63DA631A64D9
:1045FC005A649A64DA641A655A659A65DA651A66B9
:10460C005A669A66DA661A675A679A67DA67F032F8
:10461C0092000021044800F063FE044B044A1A6027
:10462C0010BDC04600001050DC190020A01D002059
:10463C0080011050F0B54E464546DE465746E0B573
:10464C00214B00249E6D012585B0002E22D01F4BDE
:10465C009A46012399461E4B984601E0202C19D00E
:10466C002A00230001342F003240E4B26D00002AEE
:10467C00F4D0524697654A465B085B0022409B1873
:10468C005B01434418009B4600F01EFC002808D137
:10469C00BE43E3D105B0F0BCBB46B246A946A0462A
:1046AC00F0BD5B46E0219A78DB8A01A88360002389
:1046BC00C900018001210271437100F025FC5846AC
:1046CC0000F0A0FBE4E7C046000011500030115090
:1046DC009C1900209823F0B5C646C84A00B5D55899
:1046EC0080232E009B02102484B01E401D4274D0E7
:1046FC00C34BC44C9A6AC44B00261A603B23E35C40
:10470C00022B00D14FE17B23E35C022B00D1F3E0C1
:10471C00BB23E35C022B00D1FAE0FB23E35C022B0E
:10472C0000D101E13C23FF33E35C022B00D12DE1EE
:10473C007C23FF33E35C022B00D10EE1BC23FF335F
:10474C00E35C022B00D13FE1FC23FF33E35C022B43
:10475C0000D1F5E0AD4BE35C022B00D174E1AC4B26
:10476C00E35C022B00D105E1AA4BE35C022B00D1E8
:10477C0075E1A94BE35C022B00D132E1A74BE35C62
:10478C00022B00D1A0E1A64BE35C022B00D171E11E
:10479C00A44BE35C022B00D1A1E1A34BE35C022B05
:1047AC0000D17FE1002E08D1A04B1B78002B04D147
:1047BC0080219F4A90338902D150C02269468F4B89
:1047CC0092009B6C80265B058A805B0D012101A801
:1047DC00029300F099FB974CB602EB0600D57FE0F4
:1047EC0080235B021D4231D01E43012302249846D4
:1047FC00844FBB7E002B14D000F082FD012800D921
:10480C0072E0C02200213800920100F001FB380058
:10481C0000F0F8FA00F074FD012802D9844B5C66B4
:10482C001C664346FB702037012C22D1C0236A46FC
:10483C00DB009380804A02AB03CA03C3012101A8A9
:10484C0000F062FB80227A4B92021A6580235B0196
:10485C001D4210D18023DB011D4223D180231B027A
:10486C001D422FD1AE4200D0C0E104B080BCB8468E
:10487C00F0BD0124BDE700241E43604B1C60FFF714
:10488C00A5FE80236A465B0093801472012101A867
:10489C0000F03AFB8022664B12031A658023DB0181
:1048AC001D42DBD01E4380236A46DB00938001212E
:1048BC0001A800F029FB10225D4B1A6580231B0216
:1048CC001D42CFD01E43A0236A46DB0093800121FA
:1048DC0001A800F019FB8022554B12011A65C1E7A3
:1048EC00FFF7A8FE26007BE7544B444A1C66536E28
:1048FC002340A342FBD184E77833E75C002F00D13F
:10490C0006E70233E25C002A00D00DE13E00FFE630
:10491C00B833E75C002F00D1FFE60233E25C002ADB
:10492C0000D0F9E03E00F8E6F833E75C002F00D148
:10493C00F8E60233E25C002A00D041E13E00F1E6E9
:10494C00F933FF33E75C002F00D103E70233E25C5D
:10495C00002A00D02BE13E00FCE67933FF33E75C04
:10496C00002F00D1EAE60233E25C002A00D015E108
:10497C003E00E3E6324BE75C002F00D1F4E6023355
:10498C00E25C002A00D001E13E00EDE63933FF3352
:10499C00E75C002F00D1CBE60233E25C002A00D0AA
:1049AC00EBE03E00C4E63833E65C002E00D1AAE60C
:1049BC000233E25C002A00D1A5E620000022203060
:1049CC00E25400F04DFA9EE6B933FF33E75C002F5A
:1049DC0000D1B9E60233E25C002A00D0C4E03E000C
:1049EC00B2E6184BE75C002F00D1C7E60233E25C5D
:1049FC00002A00D0B0E03E00C0E6C04600001150D6
:104A0C00004005409C190020941900203B02000036
:104A1C007B020000BB020000FB0200003B03000015
:104A2C007B030000BB030000FB030000E91D00201A
:104A3C0000301150100002000000105000201150E6
:104A4C007A020000FA0200006B4BE75C002F00D1E9
:104A5C0085E60233E25C002A76D13E007FE6674BA6
:104A6C00E75C002F00D184E60233E25C002A63D1BC
:104A7C003E007EE6624BE75C002F00D188E60233F5
:104A8C00E25C002A00D0A3E05E4BE35C022B30D149
:104A9C005D4BE35C002B27D15C4BE35C022B00D01D
:104AAC008BE63E005A4BE35C002B00D17AE6FF23E9
:104ABC009B00E25C002A00D17FE60022E2541C3B02
:104ACC00E01800F0CDF978E6524BE75C002F00D1EE
:104ADC0059E60233E25C002A16D13E0053E64A4BFB
:104AEC00E35C002B00D158E6EF239B00E25C002A2C
:104AFC0075D1464BE35C022B00D05EE6444BE35C85
:104B0C00002B00D159E6D2E70022E2541C3BE018FE
:104B1C0000F0A6F93E0036E620000022A030E25458
:104B2C003E0000F09DF9F8E5200000226030E254D0
:104B3C003E0000F095F9EBE50022E2541C3BE01836
:104B4C0000F08EF93E0014E60022E2541C3BE01803
:104B5C0000F086F93E0002E60022E2541C3BE0180D
:104B6C0000F07EF93E0009E620000022A130FF3063
:104B7C00E2543E0000F074F9E6E5200000222130FA
:104B8C00FF30E2543E0000F06BF9D1E50022E25414
:104B9C001C3BE01800F064F93E00E5E52000002223
:104BAC006130FF30E2543E0000F05AF9C6E52000B7
:104BBC000022E130FF30E2543E0000F051F9C9E52B
:104BCC0020000022E030E2543E0000F049F9A9E553
:104BDC000022E2541C3BE01800F042F954E700229A
:104BEC00E2541C3BE01800F03BF982E731000A4824
:104BFC00694000F0ADFBC0463A020000BA0200006A
:104C0C007A030000BB030000BA030000FB030000A2
:104C1C00FA0300003A03000060410010F0B5C646EC
:104C2C0000B50200838A008B8C46011C984200D987
:104C3C00191CD47880252000461EB04189B2ED00A5
:104C4C000D434003284301256C405B1AD470547803
:104C5C009BB29382002C31D16446D568A4014E1EC0
:104C6C002D19B0461469002923D0062E32D92B00F9
:104C7C0023439B072ED1631CEB1A022B2AD900234A
:104C8C008F08BF00E658EE5004339F42FAD14346DA
:104C9C00ED19DB1BE419B94209D026782E70002BD4
:104CAC0005D066786E70012B01D0A378AB701469B7
:104CBC00938A64181461802212021043002B02D1D3
:104CCC008023DB0118436346002B00D0000480BC1A
:104CDC00B846F0BD0023E65CEE5401339942FAD19C
:104CEC00E5E7C0468368F0B51A680400002900D0D7
:104CFC00120C63789205900D002B08D1E38AC3182F
:104D0C00E382238B834201D90023A382F0BDE368A5
:104D1C00890125695E18471E002822D0062F26D946
:104D2C0001315B18EB1A022B21D92B0033439B0763
:104D3C001DD10023120E9200F158E95004339A420F
:104D4C00FAD1BF1AAD18B618904209D032782A7031
:104D5C00002F05D072786A70012F01D0B278AA703A
:104D6C002569E38A2D18C318E3822561C9E700225F
:104D7C00B35CAB5401329042FAD12569F1E7C046DD
:104D8C0010B50400836800211B68FFF7ABFF636854
:104D9C001B685B0002D5238B834200D010BD012120
:104DAC002000FFF79FFFF9E7084A0300126C002070
:104DBC00920703D49A78D209012A00D07047D87E82
:104DCC00023843425841C0B2F8E7C04600001150C7
:104DDC0010B5FFF7E9FF00280CD00749074B8C46AC
:104DEC00074A9B6A126863449B1A0020C6229A42A7
:104DFC004041C0B210BDC046E0FCFFFF0040054082
:104E0C009419002000238376436103617047C046E8
:104E1C0010B58368002901D01C682140002A12D0EB
:104E2C008024E400114322420DD01A6822420CD196
:104E3C00084A0A401A60084A126C920703D40C23E1
:104E4C00033BFDD28368196010BD8178034800F0E4
:104E5C007FFAC046FFFBFFFF0000115074410010A9
:104E6C00436870B50021802504001E68FFF7D6FE4C
:104E7C00124B6D011A6C0543A37892070ED55B0695
:104E8C000ED00F4B1E4080239B05334362680021DC
:104E9C00136020002A00FFF7BBFF70BDDB09F0D0C8
:104EAC00A38A002BEDD001212000FFF7B7FEA02331
:104EBC00044ADB05324005431343E7E70000115079
:104ECC00FFFFFFAFFFFFFFDF70B5857E0400002DF5
:104EDC0014D0FFF755FFA38A002B01D1280070BD19
:104EEC002000FFF775FF002803D00123002523774E
:104EFC00F4E72000FFF7B4FF0025EFE781780148C5
:104F0C0000F026FA94410010F0B5CE46474680B525
:104F1C00437805000E0085B0062B08D86C4A9B0020
:104F2C00D3589F466B4A13780133DBB213706A4B2C
:104F3C001C686269EFF3108172B61368002BFCD009
:104F4C00BFF35F8FA1612000290000F0E9F96269CD
:104F5C00A369BFF35F8F0021116083F310880028D1
:104F6C0004D105B0C0BCB946B046F0BD320069787A
:104F7C00287800F0E5F9F4E70121584B1A788A43B8
:104F8C001A701A7801318A431A7000225A701A78F2
:104F9C0002318A431A70CAE75149524F8946524925
:104FAC000024002388463A7812E043461B686101CE
:104FBC005B18002B06D0DB69002B03D069682878BE
:104FCC0098473A780134E4B2511C2300A14217DB14
:104FDC00A242EAD89B1A5B014B44ECE73F4B1A7890
:104FEC00D207BED504211A780A431A709FE73B4BAF
:104FFC001A78D207B5D504211A788A431A7096E725
:10500C00364F3B785B072BD504223B78002193432A
:10501C003B706B460632981D00F062F92B7801ACA0
:10502C002370052363702C4B1B6898465A69EFF369
:10503C00108172B61368002BFCD0BFF35F8F434610
:10504C0040469961210000F06BF943465A699B690F
:10505C00BFF35F8F0021116083F31088002831D1DA
:10506C00FB78DB0700D47CE76B460A220021981DF5
:10507C0000F036F92B7801AC2370032363706B6856
:10508C006360154B1D686A69EFF3108172B6136883
:10509C00002BFCD0BFF35F8FA9612800210000F02A
:1050AC003FF96A69AB69BFF35F8F0021116083F32D
:1050BC001088002800D154E732006178207800F085
:1050CC003FF94EE732006178207800F039F9C7E7F4
:1050DC00F8430010EA1D002048160020F0150020AF
:1050EC0014440010E81D00200014002010B5084CDA
:1050FC002378002B0AD18023064807495B051A68E0
:10510C00C25004338B42FAD10123237010BDC04628
:10511C00EB1D0020581800100001001010B5014BB9
:10512C00984710BD59180020064B5A6802609A68BF
:10513C004260DA6882601A69C2605A6902619B69CE
:10514C0043617047000002400268064B5A60426897
:10515C009A608268DA60C2681A6102695A614269AF
:10516C009A61704700000240034B1A68C0239B00F1
:10517C009343024A136070470C8001400C9001402D
:10518C00054B1A6880239B005340C02292001340A9
:10519C00024A13607047C0460C8001400C900140DD
:1051AC000023F0B5DE4657464E4645469A46E0B5D6
:1051BC0089B001900E00988A45491B8B14009847C2
:1051CC00534681464349988A1B8B9847534642491C
:1051DC000500988A1B8B98478046FFF787FF02A82B
:1051EC00FFF7A2FFC847A847FFF7CAFF251E22D02A
:1051FC000823C0219C460220490562468B6A1A404E
:10520C0018423FD0631B002D2FD1002A11D1002C46
:10521C0011D0C0235B059B4602239A460633994660
:10522C005B464A4657469B6A1A401F4242D0002AA8
:10523C00F6D0002C30D1FFF797FFC047FFF76EFF79
:10524C0002A8FFF781FF09B0F0BCBB46B246A946E5
:10525C00A046F0BD002C2FD1C0225205926A914677
:10526C0008224F463A40BF072DD50D2B1BD9002ADB
:10527C00F0D1C0225205926A914608224F463A401C
:10528C00BF07F2D4002A04D12B002343002BB4D146
:10529C00D1E72B00002CF9D00B6E013C33702300AE
:1052AC0001362B43F2E7019F013D3B7801370B663A
:1052BC000197E7E70025E5E7C0235B051B6E013C82
:1052CC003370013699E72B00002ADFD1DCE7C046AA
:1052DC004946000045580000464300007047C04650
:1052EC0001B40248844601BC604700BFBD1A0010DF
:1052FC0001B40248844601BC604700BFE9190010A4
:10530C0001B40248844601BC604700BF4104001050
:10531C0001B40248844601BC604700BF81100010F4
:10532C0001B40248844601BC604700BF0D3C00102C
:10533C0001B40248844601BC604700BFB1110010A3
:10534C0001B40248844601BC604700BFF52200103E
:10535C0001B40248844601BC604700BF4D040010F4
:10536C00C0410010744000108040001094400010A8
:10537C00A44000101000000000000000000001001C
:10538C00000000000000000000000200000000000F
:10539C0000000000000003000000000000000000FE
:1053AC000000FF000000000001B5486801318E4686
:1053BC000047704609380149884701BD050A0010AD
:1053CC0000000000000000000000000000000000D1
:1053DC000000000080100020000000000000000011
:1053EC00503300004C3300005433000052330000A3
:1053FC004D5300004D430000533400004334000073
:10540C00091E00100D1F0010551E0010211F00104A
:10541C0000000000000100004C16002010000C00E1
:10542C000000000000000000000000000000000070
:10543C0000000000FF000000000000000000000061
:04000005100001E9FD
:00000001FF
